S0120000506F73744C616230325F2E737265639C
S11300000C9434000C9449000C9449000C9449005D
S11300100C9449000C9449000C9449000C94490038
S11300200C9449000C9449000C9449000C94490028
S11300300C9449000C9449000C9449000C94490018
S11300400C9449000C9449000C9449000C94490008
S11300500C9449000C9449000C9449000C944900F8
S11300600C9449000C94490011241FBECFEFD8E032
S1130070DEBFCDBF11E0A0E0B1E0E2E6F2E002C0F5
S113008005900D92A630B107D9F70E940D010C948A
S11300902F010C94000080FF04C09BB191609BB9B8
S11300A003C09BB19E7F9BB981FF04C09BB192604A
S11300B09BB903C09BB19D7F9BB982FF04C09BB1D8
S11300C094609BB903C09BB19B7F9BB983FF04C021
S11300D09BB198609BB903C09BB1977F9BB984FF88
S11300E004C09BB190619BB903C09BB19F7E9BB937
S11300F085FF04C09BB190629BB903C09BB19F7DF7
S11301009BB986FF04C09BB190649BB903C09BB1AB
S11301109F7B9BB9882324F48BB180688BB90895A5
S11301208BB18F778BB9089595B19E7F95B90E9455
S11301304B0085B1826085B98FE79EE30197F1F7A3
S113014000C0000085B18D7F85B908958AB18FEF15
S11301508AB91BB880E00E944B002FEF89EF90E032
S1130160215080409040E1F700C0000080E30E94ED
S113017094008FE19EE40197F1F700C0000080E352
S11301800E9494008FED9BEA0197F1F700C00000F4
S113019080E30E94940080E30E94940088E30E941C
S11301A094008CE00E94940086E00E94940081E018
S11301B00E949400089595B1916095B90E944B00F6
S11301C085B1826085B98FE79EE30197F1F700C09E
S11301D0000085B18D7F85B908950F931F93CF9348
S11301E0DF938C01C0E0D0E003C00E94DB002196C5
S11301F0F801EC0FFD1F80818111F7CFDF91CF91C2
S11302001F910F910895613011F4815803C0623039
S113021019F481540E949400089584B1836084B9D0
S113022015B80E94A60061E081E00E94030180E508
S11302300E94DB0081E40E94DB0085E50E94DB0074
S11302408CE40E94DB0081E40E94DB0062E081E038
S11302500E94030180E091E00E94ED00FFCFF8943A
S1050260FFCFCA
S10902624845592100008B
S9030000FC
