S01500006C6162335F6469676974616C322E737265633E
S11300000C943B000C944D000C944D000C944D004A
S11300100C944D000C944D000C944D000C944D0028
S11300200C944D000C944D000C944D000C944D0018
S11300300C944D000C944D000C944D000C944D0008
S11300400C944D000C949E000C944D000C944D00A7
S11300500C944D000C944D000C944D000C944D00E8
S11300600C944D000C944D00E300EA00F100FB00F9
S113007005010F01190111241FBECFEFD8E0DEBF27
S1130080CDBF21E0A0E0B1E001C01D92A330B207D2
S1130090E1F70E947C000C9436010C94000087B1B7
S11300A08C7F87B988B18C7F88B9ECE7F0E080E475
S11300B08083808180628083EAE7F0E080E8808347
S11300C0808187608083EEE7F0E0808183608083B5
S11300D00895ECE7F0E09081907F8F70892B808306
S11300E0EAE7F0E080818064808380917A0086FD75
S11300F0FCCF8091790008951092C1008FEF8AB9E6
S11301001BB80E944F0020E040E060E080E40E94C1
S1130110C9008CB580688CBD789480E00E94690029
S11301208093020181E00E946900809301018FE9BC
S11301309FE00197F1F700C00000EFCF1F920F92EC
S11301400FB60F9211248F939F938EB5813629F0A9
S1130150823639F08C3471F408C0809102018EBD6E
S113016011C0809101018EBD0DC081E0809300011A
S11301701EBC08C090910001992319F08BB910920C
S113018000011EBC9F918F910F900FBE0F901F9086
S11301901895E82F1CBC1DBC84FF52C084B18C622E
S11301A084B984B18F7E84B98CB580618CBDE770CD
S11301B08E2F90E08730910508F04BC0FC01EC5C79
S11301C0FF4F0C9430018CB58C7F8CBD8DB5816054
S11301D08DBD3FC08CB58C7F8CBD8DB58E7F8DBDA4
S11301E038C08CB58D7F8CBD8CB581608CBD8DB5D0
S11301F081608DBD2EC08CB58D7F8CBD8CB581602A
S11302008CBD8DB58E7F8DBD24C08CB582608CBDB8
S11302108CB58E7F8CBD8DB581608DBD1AC08CB5BB
S113022082608CBD8CB58E7F8CBD8DB58E7F8DBD6F
S113023010C08CB583608CBD8DB58E7F8DBD09C01B
S113024084B1806184B984B1837D84B98CB58F7E97
S11302508CBD8CB5462B242B282B20642CBD0895F3
S1130260EE0FFF1F0590F491E02D0994F894FFCF51
S9030000FC
