:100000000C943B000C9458000C9458000C9458002D
:100010000C9458000C9458000C9458000C94580000
:100020000C9458000C9458000C9458000C945800F0
:100030000C9458000C9458000C9458000C945800E0
:100040000C9458000C9458000C9458000C945800D0
:100050000C9458000C9458000C9458000C945800C0
:100060000C9458000C94580074007B0082008C00A3
:100070009600A000AA0011241FBECFEFD8E0DEBF7B
:10008000CDBF11E0A0E0B1E0E2E5F4E002C00590F0
:100090000D92A231B107D9F721E0A2E1B1E001C090
:1000A0001D92A931B207E1F70E94C7000C94270204
:1000B0000C940000E82F1CBC1DBC84FF52C084B10E
:1000C0008C6284B984B18F7E84B98CB580618CBD1B
:1000D000E7708E2F90E08730910508F04BC0FC014F
:1000E000EC5CFF4F0C9412028CB58C7F8CBD8DB5EF
:1000F00081608DBD3FC08CB58C7F8CBD8DB58E7FF2
:100100008DBD38C08CB58D7F8CBD8CB581608CBDAC
:100110008DB581608DBD2EC08CB58D7F8CBD8CB5AD
:1001200081608CBD8DB58E7F8DBD24C08CB5826005
:100130008CBD8CB58E7F8CBD8DB581608DBD1AC098
:100140008CB582608CBD8CB58E7F8CBD8DB58E7F5D
:100150008DBD10C08CB583608CBD8DB58E7F8DBD7F
:1001600009C084B1806184B984B1837D84B98CB5C0
:100170008F7E8CBD8CB5462B242B282B20642CBD68
:1001800008958EBD0DB407FEFDCF8EB50895E1EC48
:10019000F0E01082F89410828FEF8AB91BB887B113
:1001A000806287B988B1806288B90E94480120E0E6
:1001B00040E060E081E50E945A00789488B18F7D2C
:1001C00088B981E60E94C10080E00E94C10080934E
:1001D000130188B1806288B980E091E00E945B01E0
:1001E0008091130190E00E94680187E091E00E94F5
:1001F0005B012FEF81EE94E0215080409040E1F7C9
:1002000000C0000088B18F7D88B982E60E94C100DD
:1002100080E00E94C1008093120188B1806288B999
:100220008AE091E00E945B018091120190E00E94BF
:10023000680187E091E00E945B012FEF81EE94E07E
:10024000215080409040E1F700C000000E94CB01A7
:1002500080911701882391F0809118018BB988B1A2
:100260008F7D88B98CE40E94C100809118010E94A2
:10027000C10088B1806288B9109217012FEF83EC1A
:1002800099E0215080409040E1F700C0000096CFF7
:100290001092C50087E68093C40088E18093C10076
:1002A00086E08093C20008959091C00095FFFCCF36
:1002B0008093C6000895CF93DF93EC0103C021968D
:1002C0000E94540188818111FACFDF91CF91089566
:1002D0001F93CF93DF9300D000D000D0CDB7DEB70F
:1002E000AC01892B91F580E30E9454013FC09A0133
:1002F000ADECBCEC0E941802969587959695879573
:10030000969587959C01220F331F880F991F880FA0
:10031000991F880F991F820F931F9A01281B390B71
:10032000C901E1E0F0E0EC0FFD1FE10FF11D805D80
:1003300080839A010E941802AC0156954795569504
:100340004795569547951F5F01C010E0411551052F
:1003500071F60AC01150E1E0F0E0EC0FFD1FE10F73
:10036000F11D80810E9454011111F4CF26960FB621
:10037000F894DEBF0FBECDBFDF91CF911F910895DE
:100380008091C0008823E4F78091C6000895809191
:10039000C000807808950E94C701882309F441C0F5
:1003A0000E94C00190ED980F9A30F8F42091150149
:1003B00030911601A901440F551F220F331F220F40
:1003C000331F220F331F240F351F280F311D2053D9
:1003D00031092F3F310509F020F5309316012093A4
:1003E000150181E08093140108958D3011F08A3059
:1003F00091F4809114018823A1F0809115018093DC
:10040000180181E0809317011092160110921501D6
:100410001092140108951092160110921501109275
:1004200014010895EE0FFF1F0590F491E02D09943B
:10043000A29FB001B39FC001A39F700D811D112425
:10044000911DB29F700D811D1124911D0895F89486
:02045000FFCFDC
:10045200414443303A20000D0A00414443313A20DE
:02046200000098
:00000001FF
