:100000000C9434000C9451000C9451000C94510049
:100010000C94AE000C9451000C9451000C945100BF
:100020000C9451000C9451000C9451000C94CA0093
:100030000C9451000C9451000C9451000C945100FC
:100040000C9451000C9451000C9451000C945100EC
:100050000C9451000C9451000C9451000C945100DC
:100060000C9451000C94510011241FBECFEFD8E026
:10007000DEBFCDBF11E0A0E0B1E0ECE1F2E002C0F4
:1000800005900D92A231B107D9F721E0A2E1B1E0CC
:1000900001C01D92A631B207E1F70E949C000C94AA
:1000A0000C010C940000E82FF0E0EF5FFE4F808120
:1000B0008BB90895E1E6F0E080E8808384E08083F6
:1000C0001092C1008FEF8AB98BB984B18F6084B967
:1000D00085B1807F85B987B18F6087B988B1807F0E
:1000E00088B987B18F7887B988B1806788B9089552
:1000F000E8E6F0E0808182608083ECE6F0E08081D9
:10010000806780830895E1E8F0E010828081886054
:1001100080838081836080838EE490E09093890067
:1001200080938800EFE6F0E0808182608083109207
:100130008500109284000895F8940E945A000E944D
:1001400078000E9483007894809113018823E1F362
:100150001092130181E080931401F6CF1F920F9249
:100160000FB60F9211248F939F9386B18295817061
:1001700090911201911105C0813019F491E0909392
:100180001301809312019F918F910F900FBE0F90DA
:100190001F9018951F920F920FB60F9211242F9354
:1001A0003F934F935F936F937F938F939F93AF93FF
:1001B000BF93EF93FF93809114018823E1F0809126
:1001C00015018F5F8093150180911501883C79F4AA
:1001D00080910001863030F480910001815080933D
:1001E000000105C01092000185E080931401809108
:1001F00000010E945300FF91EF91BF91AF919F9139
:100200008F917F916F915F914F913F912F910F90BF
:0C0210000FBE0F901F901895F894FFCFC0
:10021C000540752224150C0865000501184A300AA2
:02022C000B00C5
:00000001FF
