S0120000506F73744C616230315F2E737265639D
S11300000C9434000C9451000C9451000C94510045
S11300100C9425010C9451000C9451000C94510043
S11300200C9451000C9451000C9451000C946201F6
S11300300C9451000C9451000C9451000C945100F8
S11300400C9451000C9451000C9451000C945100E8
S11300500C9451000C9451000C9451000C945100D8
S11300600C9451000C94510011241FBECFEFD8E022
S1130070DEBFCDBF11E0A0E0B1E0EAE2F4E002C0EF
S113008005900D92A231B107D9F721E0A2E1B1E0C8
S113009001C01D92A132B207E1F70E949C000C94AA
S11300A013020C940000E82FF0E0EF5FFE4F808114
S11300B08BB90895E1E6F0E080E8808384E08083F2
S11300C01092C1008FEF8AB98BB984B18F6284B961
S11300D085B1807D85B987B1876087B988B1887F0C
S11300E088B987B1877C87B988B1886388B908954E
S11300F0E8E6F0E0808182608083ECE6F0E08081D5
S1130100886380830895E1E8F0E01082808188604C
S113011080838081836080838EE490E09093890063
S113012080938800EFE6F0E0808182608083109203
S11301308500109284000895F8940E945A000E9449
S113014078000E9483007894809119018823C1F07B
S11301501092190185E08093000110921D01109204
S113016013011092120110921B0110921A0185B111
S1130170807D85B988B1887F88B981E080931C012E
S113018080911801882371F01092180180911B014D
S11301908F5F80931B0195B180911B01907F8F70BD
S11301A0892B85B9809117018823C9F01092170112
S11301B080911A018F5F80931A0198B180911A017E
S11301C0987F8770892B88B980911A0183FF04C0B6
S11301D085B1806285B903C085B18F7D85B9809171
S11301E01301882309F4B0CF809112018111ACCF9F
S11301F080911B01893090F081E08093120110926C
S1130200130185B18F6085B988B1887F88B985B1BC
S11302108F7D85B981E00E94530096CF80911A01A9
S1130220893008F491CF81E0809312011092130178
S113023088B1876088B985B1806285B985B1807FCE
S113024085B982E00E9453007FCF1F920F920FB6B0
S11302500F9211242F933F938F939F9386B183FB27
S1130260332730F984FB222720F985FB882780F97E
S113027090912001911107C090911601391719F03E
S113028091E09093200190911F01911107C09091EA
S11302901501291719F091E090931F0190911E0107
S11302A0911107C090911401891719F081E080938E
S11302B01E019F918F913F912F910F900FBE0F9030
S11302C01F9018951F920F920FB60F9211242F931F
S11302D03F934F935F936F937F938F939F93AF93CA
S11302E0BF93EF93FF93809120018823F1F08091D5
S11302F020018F5F80932001809120018B30A9F42D
S113030086B183FB882780F990911601913049F4D6
S1130310811107C090911C01911103C091E0909349
S11303201901809316011092200180911F018823E6
S113033009F180911F018F5F80931F0180911F013C
S11303408B30C1F486B18295817090911501913002
S113035069F481110BC090911301992339F09091A4
S11303601201911103C091E090931801809315013B
S113037010921F0180911E01882311F180911E01AA
S11303808F5F80931E0180911E018B30C9F486B16A
S113039085FB882780F990911401913069F48111CB
S11303A00BC090911301992339F09091120191118E
S11303B003C091E0909317018093140110921E01E1
S11303C080911C018823F1F0809100010E94530068
S11303D080911D018F5F80931D0180911D01883CD8
S11303E088F010921D0180910001882331F08091E2
S11303F0000181508093000105C010921C0181E02E
S113040080931301FF91EF91BF91AF919F918F91D1
S11304107F916F915F914F913F912F910F900FBEFC
S10D04200F901F901895F894FFCF79
S113042A0540752224150C0865000501184A300A8E
S105043A0B00B1
S9030000FC
